:100B3500D20090E600E054E74410F075B2FF7580EE
:100B45009FE4F5B3438040753E05F53D753C58126D
:100B55000A15753E2C753D00753CB5753B007F202B
:100B65007E00120A1AE4753EB3753D04120A13E4B9
:100B7500753E42753D4E120A13753E29753D8075C9
:100B85003C00753B087F207E00120A1A753E1875D9
:100B95003D80753CC8753B007F207E00120A1A53C4
:030BA50080DF22CC
:0100320022AB
:02005000D322B9
:020D3F00D322BD
:020D4100D322BB
:080D2B0090E6BAE0F54BD3227B
:100D070090E740E54BF0E490E68AF090E68B04F03C
:020D1700D322E5
:080D330090E6BAE0F549D32275
:100D190090E740E549F0E490E68AF090E68B04F02C
:020D2900D322D3
:020D4300D322B9
:020D4500D322B7
:020D4700D322B5
:10026D0090E6B9E02428700302040A147003020317
:10027D006524FA70030203F3240260030204249040
:10028D00E6B8E06440600302031890E68AF090E659
:10029D008BF090E6A0E020E1F990E742E0FFE4FC6E
:1002AD00FDFEFBFA7901F81206E9A804A905AA06D4
:1002BD00AB0790E741E0FE90E740E07C002400FFB3
:1002CD00EC3EFEE4FD1206DCC004C005C006C0070E
:1002DD0090E743E0FFE4FCFDFEFBFAF9780112061E
:1002ED00E9D003D002D001D0001206DC8F388E3752
:1002FD008D368C3590E744E0753300F5348F3E8EA6
:10030D003D8D3C8C3BFFAE33120A1A90E6B8E0648B
:10031D00C0600302042490E6A0E020E1F9E4F53189
:10032D0090E6BAE0FFE4FCFDFEFBFA7901F8120657
:10033D00E9A804A905AA06AB07AF31E4FCFDFE123E
:10034D0006DC8F388E378D368C35753D01E4F53EE4
:10035D001205D88F320203FD90E6B8E064406003C9
:10036D0002042490E68AF090E68BF090E6A0E0205F
:10037D00E1F990E742E0FFE4FCFDFEFBFA7901F8BC
:10038D001206E9A804A905AA06AB0790E741E0FE0D
:10039D0090E740E07C002400FFEC3EFEE4FD1206F9
:1003AD00DCC004C005C006C00790E743E0FFE4FCD5
:1003BD00FDFEFBFAF978011206E9D003D002D00157
:1003CD00D0001206DC8F388E378D368C3590E74491
:1003DD00E0753300F5348F3E8E3D8D3C8C3BFFAE8A
:1003ED003312096C803190E6A0E020E1F9120AB7D2
:1003FD00E490E68AF090E68B7402F0801AE490E6C1
:10040D008AF090E68BF090E6A0E020E1F990E740CD
:08041D00E0FF7E00120BA8C3F2
:0104250022B4
:100AB700438001438004E4F539F53AFB438002E4BF
:100AC700FF0FBF04FCE53925E0F539E5905401FF38
:100AD700E48F3EF53DF53CF53BE539453EFF8F3963
:100AE7005380FDE4FF0FBF04FC0BBB02CFE4FB43C5
:100AF7008002E4FF0FBF04FCE53A25E0F53AE590F4
:100B07005401FFE48F3EF53DF53CF53BE53A453EA4
:100B1700FF8F3A5380FDE4FF0FBF04FC0BBB08CFE8
:0D0B270090E740E539F0A3E53AF05380FD7A
:010B3400229E
:100BA8005380BF5380DFEF64044E70065380BF53F9
:100BB80080DFEF64144E70065380BF438020EF64DB
:100BC8000C4E70064380405380DFEF641C4E700665
:070BD800438040438020220E
:0805D8008F3C8E3B8D3A8C39FB
:1005E0004380015380FD5380FE5380FBE4F53FE5DB
:1005F0003FC3953D40030206D3E53F25E02441F883
:10060000E4F608F6F540E53C5548FFE53B5547FE66
:10061000E53A5546FDE5395545FCAB48AA47A9469C
:10062000A845C3120738700543800480035380FB3C
:10063000AF48AE47AD46AC4578011207498F488EAA
:10064000478D468C45438002E53F25E02441F8E68E
:10065000FE08E625E0FFEE33FEE5905480FDEF4D09
:10066000FFE53F25E02441F8A60608A6075380FDD4
:10067000E4FF0FBF04FC0540E54064187088E53FC7
:1006800025E02441F808E6FFAE3E053E74402EF515
:1006900082E434E7F583EFF0E53F25E02441F8E616
:1006A000FEEEFFAE3E053E74402EF582E434E7F5E3
:1006B00083EFF0E53F25E02441F8E6FEEEFFAE3E95
:1006C000053E74402EF582E434E7F583EFF0053FF4
:0B06D0000205EF5380FD438001AF3EA8
:0106DB0022FC
:070A1300F53CF53B7F20FEDE
:040A1A008F828E83B6
:100A1E00EF14F9E47F01FEFDFCA80112075C8F4282
:100A2E008E418D408C3F5380FEE4F544C3E54495E2
:100A3E0082E5836480F87480985053E53E5542FFFA
:100A4E00E53D5541FEE53C5540FDE53B553FFCABD4
:100A5E0042AA41A940A83FC312073870054380043B
:100A6E0080035380FBAF42AE41AD40AC3F780112E4
:100A7E0007498F428E418D408C3F438002E4F543FF
:100A8E000543E543B404F95380FD0544809EE4F527
:100A9E00430543E543B404F9438001E4F5430543BC
:080AAE00E543B404F95380FE96
:010AB600221D
:04096C008E398F3AF7
:10097000EF14FF7E007401A807088005C333CE334F
:10098000CED8F9FFEE3395E08F428E41F540F53F2A
:100990005380F6E4F544C3E544953AE5396480F8BC
:1009A0007480985053E53E5542FFE53D5541FEE5C4
:1009B0003C5540FDE53B553FFCAB42AA41A940A850
:1009C0003FC3120738700543800480035380FBAF98
:1009D00042AE41AD40AC3F78011207498F428E4193
:1009E0008D408C3F438002E4F5430543E543B40466
:1009F000F95380FD0544809EE4F5430543E543B487
:100A000004F9438009E4F5430543E543B404F9538D
:020A100080F66E
:010A120022C1
:100CA400C0E0C083C08290E6B5E04401F0D20153B5
:0F0CB40091EF90E65D7401F0D082D083D0E032F2
:100CDB00C0E0C083C0825391EF90E65D7404F0D006
:060CEB0082D083D0E0324C
:100CF100C0E0C083C0825391EF90E65D7402F0D0F2
:060D010082D083D0E03235
:100BDF00C0E0C083C08290E680E030E70E85080C4D
:100BEF0085090D85100E85110F800C85100C851150
:100BFF000D85080E85090F5391EF90E65D7410F087
:070C0F00D082D083D0E03257
:100CC300C0E0C083C082D2035391EF90E65D740805
:080CD300F0D082D083D0E032A2
:100C1600C0E0C083C08290E680E030E70E85080C15
:100C260085090D85100E85110F800C85100C851118
:100C36000D85080E85090F5391EF90E65D7420F03F
:070C4600D082D083D0E03220
:01004200328B
:01005200327B
:010D49003277
:010D4A003276
:010D4B003275
:010D4C003274
:010D4D003273
:010D4E003272
:010D4F003271
:010D50003270
:010D5100326F
:010D5200326E
:010D5300326D
:010D5400326C
:010D5500326B
:010D5600326A
:010D57003269
:010D58003268
:010D59003267
:010D5A003266
:010D5B003265
:010D5C003264
:010D5D003263
:010D5E003262
:010D5F003261
:010D60003260
:010D6100325F
:010D6200325E
:010D6300325D
:010D6400325C
:010D6500325B
:010D6600325A
:010D67003259
:010D68003258
:010D69003257
:010D6A003256
:0A0046000001020203030404050593
:10042600E4F52CF52BF52AF529C203C200C202C257
:1004360001120B357E087FB88E0A8F0B7512087570
:1004460013CA7508087509D47510087511F4751462
:1004560009751514EE54E07003020572752D0075CA
:100466002E808E2F8F30C3746A9FFF74099ECF240F
:1004760002CF3400FEE48F288E27F526F525F524D5
:10048600F523F522F521AF28AE27AD26AC25AB2402
:10049600AA23A922A821C31207385029E52E25240C
:1004A600F582E52D3523F58374CDF0E5242401FF8F
:1004B600E43523FEE43522FDE435218F248E238D99
:1004C60022F52180C1E4F524F523F522F521AF2894
:1004D600AE27AD26AC25AB24AA23A922A821C31298
:1004E60007385036E5302524F582E52F3523F58388
:1004F600E0FFE52E2524F582E52D3523F583EFF083
:10050600E5242401FFE43523FEE43522FDE435210C
:100516008F248E238D22F52180B4852D0A852E0BFE
:1005260074B82480FF740834FFFEC3E5139FF513E7
:10053600E5129EF512C3E50D9FF50DE50C9EF50C33
:10054600C3E50F9FF50FE50E9EF50EC3E5099FF572
:1005560009E5089EF508C3E5119FF511E5109EF51E
:1005660010C3E5159FF515E5149EF514D2E843D89A
:100576002090E668E04409F090E65CE0443DF0D265
:10058600AF90E680E020E105D20512000390E680F8
:10059600E054F7F0538EF8C203300105120056C23C
:1005A600013003291200505024C2031207DB200039
:1005B6001690E682E030E704E020E1EF90E682E084
:1005C60030E604E020E0E4120C4D120D3F1200323A
:0205D60080C7DC
:1000560090E6B9E012076F00FA0001770101FA0392
:1000660000790600F40800EE0900E20A00E80B0039
:10007600000259120D41400302026590E6BBE024DE
:10008600FE602214603324FD601114602224067081
:1000960048E50A90E6B3F0E50B8037E51290E6B343
:1000A600F0E513802DE50C90E6B3F0E50D8023E531
:1000B6000E90E6B3F0E50F801990E6BAE0FF120C59
:1000C60079AA06A9077B01EA494B600DEE90E6B3D3
:1000D600F0EF90E6B4F002026502025E120D19021C
:1000E6000265120D33020265120D2B020265120D16
:1000F60007020265120D43400302026590E6B8E06E
:10010600247F601514601924027063A200E433256D
:10011600E0FFA202E4334F8041E490E740F0803FE5
:1001260090E6BCE0547EFF7E00E0D394807C0040E5
:10013600047D0180027D00EC4EFEED4F2446F582E3
:1001460074003EF583E493FF3395E0FEEF24A1FFB0
:10015600EE34E68F82F583E0540190E740F0E4A3A5
:10016600F090E68AF090E68B7402F00202650202D5
:100176005E120D45400302026590E6B8E024FE607B
:10018600162402600302026590E6BAE0B40105C2D5
:100196000002026502025E90E6BAE0705590E6BC87
:1001A600E0547EFF7E00E0D394807C0040047D0115
:1001B60080027D00EC4EFEED4F2446F58274003E33
:1001C600F583E493FF3395E0FEEF24A1FFEE34E6DA
:1001D6008F82F583E054FEF090E6BCE05480131362
:1001E60013541FFFE0540F2F90E683F0E04420F0F5
:1001F600806D8064120D47506690E6B8E024FE607C
:10020600192402705A90E6BAE0B40104D200804F75
:1002160090E6BAE064026047803E90E6BCE0547E19
:10022600FF7E00E0D394807C0040047D0180027D47
:1002360000EC4EFEED4F2446F58274003EF583E455
:1002460093FF3395E0FEEF24A1FFEE34E68F82F5AF
:1002560083800812026D500790E6A0E04401F090FA
:06026600E6A0E04480F078
:01026C00226F
:03003300020D3B80
:040D3B0053D8EF3268
:1008B8001201000200000040560403B400000102C7
:1008C80000010A06000200000040010009022000A1
:1008D800010100A0320904000002FF000000070522
:1008E8000202000200070586020002000902200039
:1008F800010100A0320904000002FF000000070502
:1009080001024000000705810240000004030904B9
:100918001E0341004E0041004C004F0047002000DC
:100928004400450056004900430045005300340385
:100938004100440046003400780078007800200028
:10094800550053004200200041006400610070001F
:10095800740065007200200042006F0061007200A0
:040968006400000027
:03004300020800B0
:03005300020800A0
:10080000020CA400020CF100020CDB00020CC3007D
:10081000020BDF00020C1600020042000200520030
:10082000020D4900020D4A00020D4B00020D4C0062
:10083000020D4D00020D4E00020D4F00020D500042
:10084000020D510002005200020D5200020D530031
:10085000020D5400020D5500020D5600020D570006
:10086000020D580002005200020052000200520025
:10087000020D5900020D5A00020D5B00020D5C00D2
:10088000020D5D00020D5E00020D5F00020D6000B2
:10089000020D6100020D6200020D6300020D640092
:1008A000020D6500020D6600020D6700020D680072
:0808B000020D6900020D6A004F
:100C4D0090E682E030E004E020E60B90E682E030B2
:100C5D00E119E030E71590E680E04401F07F147E65
:0C0C6D000012079590E680E054FEF02293
:1000030030050990E680E0440AF0800790E680E03E
:100013004408F07FDC7E0512079590E65D74FFF0DF
:0F00230090E65FF05391EF90E680E054F7F02203
:020C7900A907C9
:100C7B00AE14AF158F828E83A3E064037017AD01A2
:100C8B0019ED7001228F828E83E07C002FFDEC3EEC
:080C9B00FEAF0580DFE4FEFF5F
:010CA300222E
:1007DB0090E682E044C0F090E681F0438701000090
:0407EB0000000022E8
:100795008E318F3290E600E054187012E532240154
:1007A500FFE43531C313F531EF13F532801590E6CB
:1007B50000E05418FFBF100BE53225E0F532E531B6
:1007C50033F531E5321532AE31700215314E600523
:0607D5001207EF80EE2286
:1007EF007400F58690FDA57C05A3E582458370F91D
:0107FF0022D7
:03000000020036C5
:0C003600787FE4F6D8FD75816A0204268C
:0D06DC00EF2BFFEE3AFEED39FDEC38FC226D
:1006E900E88FF0A4CC8BF0A42CFCE98EF0A42CFCB0
:1006F9008AF0EDA42CFCEA8EF0A4CDA8F08BF0A42E
:100709002DCC3825F0FDE98FF0A42CCD35F0FCEB8C
:100719008EF0A4FEA9F0EB8FF0A4CFC5F02ECD3951
:0F072900FEE43CFCEAA42DCE35F0FDE43CFC22BE
:10073800EB9FF5F0EA9E42F0E99D42F0E89C45F017
:01074800228E
:10074900E8600FECC313FCED13FDEE13FEEF13FF8E
:03075900D8F122B2
:10075C00E8600FEFC333FFEE33FEED33FDEC33FCFB
:03076C00D8F1229F
:10076F00D083D082F8E4937012740193700DA3A319
:10077F0093F8740193F5828883E47374029368602D
:06078F00EFA3A3A380DF2D
:00000001FF
