:10079500D20090E600E054E74410F075B2FF758092
:1007A5009FE4F5B3438040754205F5417540581205
:1007B5000A1575423C7541807540BC753F007F2028
:1007C5007E00120A1AE47542B3754104120A13E455
:1007D50075424275414E120A137542117541807575
:1007E5004000753F087F207E00120A1AE4F542F5A5
:0B07F50041754050120A155380DF22AE
:0100320022AB
:02005000D322B9
:020D3700D322C5
:020D3900D322C3
:080D230090E6BAE0F54FD3227F
:100CFF0090E740E54FF0E490E68AF090E68B04F041
:020D0F00D322ED
:080D2B0090E6BAE0F54DD32279
:100D110090E740E54DF0E490E68AF090E68B04F030
:020D2100D322DB
:020D3B00D322C1
:020D3D00D322BF
:020D3F00D322BD
:10026D0090E6B9E02428700302040A147003020317
:10027D006524FA70030203F3240260030204249040
:10028D00E6B8E06440600302031890E68AF090E659
:10029D008BF090E6A0E020E1F990E742E0FFE4FC6E
:1002AD00FDFEFBFA7901F81206E9A804A905AA06D4
:1002BD00AB0790E741E0FE90E740E07C002400FFB3
:1002CD00EC3EFEE4FD1206DCC004C005C006C0070E
:1002DD0090E743E0FFE4FCFDFEFBFAF9780112061E
:1002ED00E9D003D002D001D0001206DC8F3C8E3B4A
:1002FD008D3A8C3990E744E0753700F5388F428E92
:10030D00418D408C3FFFAE37120A1A90E6B8E0647B
:10031D00C0600302042490E6A0E020E1F9E4F53585
:10032D0090E6BAE0FFE4FCFDFEFBFA7901F8120657
:10033D00E9A804A905AA06AB07AF35E4FCFDFE123A
:10034D0006DC8F3C8E3B8D3A8C39754101E4F542CC
:10035D001205D88F360203FD90E6B8E064406003C5
:10036D0002042490E68AF090E68BF090E6A0E0205F
:10037D00E1F990E742E0FFE4FCFDFEFBFA7901F8BC
:10038D001206E9A804A905AA06AB0790E741E0FE0D
:10039D0090E740E07C002400FFEC3EFEE4FD1206F9
:1003AD00DCC004C005C006C00790E743E0FFE4FCD5
:1003BD00FDFEFBFAF978011206E9D003D002D00157
:1003CD00D0001206DC8F3C8E3B8D3A8C3990E74481
:1003DD00E0753700F5388F428E418D408C3FFFAE72
:1003ED003712096C803190E6A0E020E1F9120AB7CE
:1003FD00E490E68AF090E68B7402F0801AE490E6C1
:10040D008AF090E68BF090E6A0E020E1F990E740CD
:08041D00E0FF7E00120B7BC31F
:0104250022B4
:100AB700438001438004E4F53DF53EFB438002E4B7
:100AC700FF0FBF04FCE53D25E0F53DE5905401FF30
:100AD700E48F42F541F540F53FE53D4542FF8F3D47
:100AE7005380FDE4FF0FBF04FC0BBB02CFE4FB43C5
:100AF7008002E4FF0FBF04FCE53E25E0F53EE590EC
:100B07005401FFE48F42F541F540F53FE53E45428C
:100B1700FF8F3E5380FDE4FF0FBF04FC0BBB08CFE4
:0D0B270090E740E53DF0A3E53EF05380FD72
:010B3400229E
:100B7B005380BF5380DFEF64044E70065380BF5326
:100B8B0080DFEF64144E70065380BF438020EF6408
:100B9B000C4E70064380405380DFEF641C4E700692
:070BAB00438040438020223B
:0805D8008F408E3F8D3E8C3DEB
:1005E0004380015380FD5380FE5380FBE4F543E5D7
:1005F00043C3954140030206D3E54325E02445F873
:10060000E4F608F6F544E540554CFFE53F554BFE52
:10061000E53E554AFDE53D5549FCAB4CAA4BA94A80
:10062000A849C3120738700543800480035380FB38
:10063000AF4CAE4BAD4AAC4978011207498F4C8E96
:100640004B8D4A8C49438002E54325E02445F8E67A
:10065000FE08E625E0FFEE33FEE5905480FDEF4D09
:10066000FFE54325E02445F8A60608A6075380FDCC
:10067000E4FF0FBF04FC0544E54464187088E543BB
:1006800025E02445F808E6FFAE42054274402EF509
:1006900082E434E7F583EFF0E54325E02445F8E60E
:1006A000FEEEFFAE42054274402EF582E434E7F5DB
:1006B00083EFF0E54325E02445F8E6FEEEFFAE4289
:1006C000054274402EF582E434E7F583EFF00543EC
:0B06D0000205EF5380FD438001AF42A4
:0106DB0022FC
:070A1300F540F53F7F20FED6
:040A1A008F828E83B6
:100A1E00EF14F9E47F01FEFDFCA80112075C8F467E
:100A2E008E458D448C435380FEE4F548C3E54895CE
:100A3E0082E5836480F87480985053E5425546FFF2
:100A4E00E5415545FEE5405544FDE53F5543FCABBC
:100A5E0046AA45A944A843C312073870054380042B
:100A6E0080035380FBAF46AE45AD44AC43780112D4
:100A7E0007498F468E458D448C43438002E4F547EB
:100A8E000547E547B404F95380FD0548809EE4F51B
:100A9E00470547E547B404F9438001E4F5470547A8
:080AAE00E547B404F95380FE92
:010AB600221D
:04096C008E3D8F3EEF
:10097000EF14FF7E007401A807088005C333CE334F
:10098000CED8F9FFEE3395E08F468E45F544F5431A
:100990005380F6E4F548C3E548953EE53D6480F8AC
:1009A0007480985053E5425546FFE5415545FEE5B4
:1009B000405544FDE53F5543FCAB46AA45A944A834
:1009C00043C3120738700543800480035380FBAF94
:1009D00046AE45AD44AC4378011207498F468E457B
:1009E0008D448C43438002E4F5470547E547B40452
:1009F000F95380FD0548809EE4F5470547E547B477
:100A000004F9438009E4F5470547E547B404F95381
:020A100080F66E
:010A120022C1
:100C9C00C0E0C083C08290E6B5E04401F0D20153BD
:0F0CAC0091EF90E65D7401F0D082D083D0E032FA
:100CD300C0E0C083C0825391EF90E65D7404F0D00E
:060CE30082D083D0E03254
:100CE900C0E0C083C0825391EF90E65D7402F0D0FA
:060CF90082D083D0E0323E
:100BB200C0E0C083C08290E680E030E70E85080C7A
:100BC20085090D85100E85110F800C85100C85117D
:100BD2000D85080E85090F5391EF90E65D7410F0B4
:070BE200D082D083D0E03285
:100CBB00C0E0C083C082D2035391EF90E65D74080D
:080CCB00F0D082D083D0E032AA
:100BE900C0E0C083C08290E680E030E70E85080C43
:100BF90085090D85100E85110F800C85100C851146
:100C09000D85080E85090F5391EF90E65D7420F06C
:070C1900D082D083D0E0324D
:01004200328B
:01005200327B
:010D4100327F
:010D4200327E
:010D4300327D
:010D4400327C
:010D4500327B
:010D4600327A
:010D47003279
:010D48003278
:010D49003277
:010D4A003276
:010D4B003275
:010D4C003274
:010D4D003273
:010D4E003272
:010D4F003271
:010D50003270
:010D5100326F
:010D5200326E
:010D5300326D
:010D5400326C
:010D5500326B
:010D5600326A
:010D57003269
:010D58003268
:010D59003267
:010D5A003266
:010D5B003265
:010D5C003264
:010D5D003263
:010D5E003262
:010D5F003261
:010D60003260
:010D6100325F
:010D6200325E
:0A0046000001020203030404050593
:10042600E4F530F52FF52EF52DC203C200C202C247
:10043600011207957E087FB88E0A8F0B7512087514
:1004460013CA7508087509D47510087511F4751462
:1004560009751514EE54E0700302057275310075C6
:1004660032808E338F34C3746A9FFF74099ECF2403
:1004760002CF3400FEE48F2C8E2BF52AF529F524C5
:10048600F523F522F521AF2CAE2BAD2AAC29AB24F2
:10049600AA23A922A821C31207385029E532252408
:1004A600F582E5313523F58374CDF0E5242401FF8B
:1004B600E43523FEE43522FDE435218F248E238D99
:1004C60022F52180C1E4F524F523F522F521AF2C90
:1004D600AE2BAD2AAC29AB24AA23A922A821C3128C
:1004E60007385036E5342524F582E5333523F58380
:1004F600E0FFE5322524F582E5313523F583EFF07B
:10050600E5242401FFE43523FEE43522FDE435210C
:100516008F248E238D22F52180B485310A85320BF6
:1005260074B82480FF740834FFFEC3E5139FF513E7
:10053600E5129EF512C3E50D9FF50DE50C9EF50C33
:10054600C3E50F9FF50FE50E9EF50EC3E5099FF572
:1005560009E5089EF508C3E5119FF511E5109EF51E
:1005660010C3E5159FF515E5149EF514D2E843D89A
:100576002090E668E04409F090E65CE0443DF0D265
:10058600AF90E680E020E105D20512000390E680F8
:10059600E054F7F0538EF8C203300105120056C23C
:1005A600013003291200505024C203120C77200098
:1005B6001690E682E030E704E020E1EF90E682E084
:1005C60030E604E020E0E4120C20120D371200326F
:0205D60080C7DC
:1000560090E6B9E012076F00FA0001770101FA0392
:1000660000790600F40800EE0900E20A00E80B0039
:10007600000259120D39400302026590E6BBE024E6
:10008600FE602214603324FD601114602224067081
:1000960048E50A90E6B3F0E50B8037E51290E6B343
:1000A600F0E513802DE50C90E6B3F0E50D8023E531
:1000B6000E90E6B3F0E50F801990E6BAE0FF120C59
:1000C6004CAA06A9077B01EA494B600DEE90E6B300
:1000D600F0EF90E6B4F002026502025E120D110224
:1000E6000265120D2B020265120D23020265120C27
:1000F600FF020265120D3B400302026590E6B8E07E
:10010600247F601514601924027063A200E433256D
:10011600E0FFA202E4334F8041E490E740F0803FE5
:1001260090E6BCE0547EFF7E00E0D394807C0040E5
:10013600047D0180027D00EC4EFEED4F2446F582E3
:1001460074003EF583E493FF3395E0FEEF24A1FFB0
:10015600EE34E68F82F583E0540190E740F0E4A3A5
:10016600F090E68AF090E68B7402F00202650202D5
:100176005E120D3D400302026590E6B8E024FE6083
:10018600162402600302026590E6BAE0B40105C2D5
:100196000002026502025E90E6BAE0705590E6BC87
:1001A600E0547EFF7E00E0D394807C0040047D0115
:1001B60080027D00EC4EFEED4F2446F58274003E33
:1001C600F583E493FF3395E0FEEF24A1FFEE34E6DA
:1001D6008F82F583E054FEF090E6BCE05480131362
:1001E60013541FFFE0540F2F90E683F0E04420F0F5
:1001F600806D8064120D3F506690E6B8E024FE6084
:10020600192402705A90E6BAE0B40104D200804F75
:1002160090E6BAE064026047803E90E6BCE0547E19
:10022600FF7E00E0D394807C0040047D0180027D47
:1002360000EC4EFEED4F2446F58274003EF583E455
:1002460093FF3395E0FEEF24A1FFEE34E68F82F5AF
:1002560083800812026D500790E6A0E04401F090FA
:06026600E6A0E04480F078
:01026C00226F
:03003300020D3388
:040D330053D8EF3270
:1008B8001201000200000040560403B400000102C7
:1008C80000010A06000200000040010009022000A1
:1008D800010100A0320904000002FF000000070522
:1008E8000202000200070586020002000902200039
:1008F800010100A0320904000002FF000000070502
:1009080001024000000705810240000004030904B9
:100918001E0341004E0041004C004F0047002000DC
:100928004400450056004900430045005300340385
:100938004100440046003400780078007800200028
:10094800550053004200200041006400610070001F
:10095800740065007200200042006F0061007200A0
:040968006400000027
:03004300020800B0
:03005300020800A0
:10080000020C9C00020CE900020CD300020CBB009D
:10081000020BB200020BE90002004200020052008B
:10082000020D4100020D4200020D4300020D440082
:10083000020D4500020D4600020D4700020D480062
:10084000020D490002005200020D4A00020D4B0049
:10085000020D4C00020D4D00020D4E00020D4F0026
:10086000020D50000200520002005200020052002D
:10087000020D5100020D5200020D5300020D5400F2
:10088000020D5500020D5600020D5700020D5800D2
:10089000020D5900020D5A00020D5B00020D5C00B2
:1008A000020D5D00020D5E00020D5F00020D600092
:0808B000020D6100020D62005F
:100C200090E682E030E004E020E60B90E682E030DF
:100C3000E119E030E71590E680E04401F07F147E92
:0C0C400000120B3590E680E054FEF0221C
:1000030030050990E680E0440AF0800790E680E03E
:100013004408F07FDC7E05120B3590E65D74FFF03B
:0F00230090E65FF05391EF90E680E054F7F02203
:020C4C00A907F6
:100C4E00AE14AF158F828E83A3E064037017AD01CF
:100C5E0019ED7001228F828E83E07C002FFDEC3E19
:080C6E00FEAF0580DFE4FEFF8C
:010C7600225B
:100C770090E682E044C0F090E681F04387010000EF
:040C87000000002247
:100B35008E358F3690E600E054187012E5362401A4
:100B4500FFE43535C313F535EF13F536801590E61B
:100B550000E05418FFBF100BE53625E0F536E53506
:100B650033F535E5361536AE35700215354E60056B
:060B7500120C8B80EE2241
:100C8B007400F58690FDA57C05A3E582458370F97C
:010C9B002236
:03000000020036C5
:0C003600787FE4F6D8FD75816E02042688
:0D06DC00EF2BFFEE3AFEED39FDEC38FC226D
:1006E900E88FF0A4CC8BF0A42CFCE98EF0A42CFCB0
:1006F9008AF0EDA42CFCEA8EF0A4CDA8F08BF0A42E
:100709002DCC3825F0FDE98FF0A42CCD35F0FCEB8C
:100719008EF0A4FEA9F0EB8FF0A4CFC5F02ECD3951
:0F072900FEE43CFCEAA42DCE35F0FDE43CFC22BE
:10073800EB9FF5F0EA9E42F0E99D42F0E89C45F017
:01074800228E
:10074900E8600FECC313FCED13FDEE13FEEF13FF8E
:03075900D8F122B2
:10075C00E8600FEFC333FFEE33FEED33FDEC33FCFB
:03076C00D8F1229F
:10076F00D083D082F8E4937012740193700DA3A319
:10077F0093F8740193F5828883E47374029368602D
:06078F00EFA3A3A380DF2D
:00000001FF
